{
  "_format": "hh-sol-artifact-1",
  "contractName": "LoyaltyClub",
  "sourceName": "contracts/LoyaltyClub.sol",
  "abi": [
    {
      "inputs": [
        {
          "internalType": "address",
          "name": "_seller",
          "type": "address"
        }
      ],
      "stateMutability": "nonpayable",
      "type": "constructor"
    },
    {
      "inputs": [],
      "name": "amount",
      "outputs": [
        {
          "internalType": "uint256",
          "name": "",
          "type": "uint256"
        }
      ],
      "stateMutability": "view",
      "type": "function"
    },
    {
      "inputs": [],
      "name": "buyer",
      "outputs": [
        {
          "internalType": "address",
          "name": "",
          "type": "address"
        }
      ],
      "stateMutability": "view",
      "type": "function"
    },
    {
      "inputs": [],
      "name": "calculateTotalAmountInETH",
      "outputs": [
        {
          "internalType": "uint256",
          "name": "",
          "type": "uint256"
        }
      ],
      "stateMutability": "view",
      "type": "function"
    },
    {
      "inputs": [],
      "name": "checkIfPaid",
      "outputs": [
        {
          "internalType": "bool",
          "name": "",
          "type": "bool"
        }
      ],
      "stateMutability": "view",
      "type": "function"
    },
    {
      "inputs": [],
      "name": "getPrice",
      "outputs": [
        {
          "internalType": "int256",
          "name": "",
          "type": "int256"
        }
      ],
      "stateMutability": "view",
      "type": "function"
    },
    {
      "inputs": [],
      "name": "isPaid",
      "outputs": [
        {
          "internalType": "bool",
          "name": "",
          "type": "bool"
        }
      ],
      "stateMutability": "view",
      "type": "function"
    },
    {
      "inputs": [
        {
          "internalType": "uint256",
          "name": "_amount",
          "type": "uint256"
        }
      ],
      "name": "pay",
      "outputs": [],
      "stateMutability": "payable",
      "type": "function"
    },
    {
      "inputs": [],
      "name": "releasePayment",
      "outputs": [],
      "stateMutability": "nonpayable",
      "type": "function"
    },
    {
      "inputs": [],
      "name": "seller",
      "outputs": [
        {
          "internalType": "address",
          "name": "",
          "type": "address"
        }
      ],
      "stateMutability": "view",
      "type": "function"
    }
  ],
  "bytecode": "0x608060405234801561001057600080fd5b506040516107f93803806107f983398101604081905261002f91610071565b600080546001600160a01b039092166001600160a01b03199283161790556003805490911673cd2a119bd1f7df95d706de6f2057fdd45a0503e217905561009f565b600060208284031215610082578081fd5b81516001600160a01b0381168114610098578182fd5b9392505050565b61074b806100ae6000396000f3fe6080604052600436106100865760003560e01c806398d5fdca1161005957806398d5fdca1461010f578063aa8c217c14610124578063c290d69114610139578063d116c8c41461014e578063ead10f311461016357610086565b806307d174531461008b57806308551a53146100b6578063209ebc08146100d85780637150d8ae146100fa575b600080fd5b34801561009757600080fd5b506100a0610178565b6040516100ad91906105da565b60405180910390f35b3480156100c257600080fd5b506100cb610252565b6040516100ad91906105bb565b3480156100e457600080fd5b506100ed610261565b6040516100ad91906105cf565b34801561010657600080fd5b506100cb610271565b34801561011b57600080fd5b506100a0610280565b34801561013057600080fd5b506100a0610334565b61014c610147366004610554565b61033a565b005b34801561015a57600080fd5b5061014c61037f565b34801561016f57600080fd5b506100ed610506565b600080600360009054906101000a90046001600160a01b03166001600160a01b031663feaf968c6040518163ffffffff1660e01b815260040160a06040518083038186803b1580156101c957600080fd5b505afa1580156101dd573d6000803e3d6000fd5b505050506040513d601f19601f82011682018060405250810190610201919061056c565b505050915050600081136102305760405162461bcd60e51b81526004016102279061066c565b60405180910390fd5b60015461023d9082610516565b61024c906402540be4006106ea565b91505090565b6000546001600160a01b031681565b600254600160a01b900460ff1681565b6002546001600160a01b031681565b600080600360009054906101000a90046001600160a01b03166001600160a01b031663feaf968c6040518163ffffffff1660e01b815260040160a06040518083038186803b1580156102d157600080fd5b505afa1580156102e5573d6000803e3d6000fd5b505050506040513d601f19601f82011682018060405250810190610309919061056c565b5050509150506000811361032f5760405162461bcd60e51b81526004016102279061066c565b905090565b60015481565b8034146103595760405162461bcd60e51b81526004016102279061061a565b6001556002805460ff60a01b196001600160a01b0319909116331716600160a01b179055565b600254600160a01b900460ff166103a85760405162461bcd60e51b8152600401610227906105e3565b60035460408051633fabe5a360e21b815290516000926001600160a01b03169163feaf968c9160048083019260a0929190829003018186803b1580156103ed57600080fd5b505afa158015610401573d6000803e3d6000fd5b505050506040513d601f19601f82011682018060405250810190610425919061056c565b5050509150506000811361044b5760405162461bcd60e51b81526004016102279061066c565b60006104706305f5e10061046a8460015461051690919063ffffffff16565b90610529565b90506000610483836402540be4006106ea565b905060008161049a84670de0b6b3a76400006106ea565b6104a491906106ca565b9050804710156104c65760405162461bcd60e51b815260040161022790610693565b600080546040516001600160a01b039091169183156108fc02918491818181858888f193505050501580156104ff573d6000803e3d6000fd5b5050505050565b600254600160a01b900460ff1690565b600061052282846106ea565b9392505050565b600061052282846106ca565b805169ffffffffffffffffffff8116811461054f57600080fd5b919050565b600060208284031215610565578081fd5b5035919050565b600080600080600060a08688031215610583578081fd5b61058c86610535565b94506020860151935060408601519250606086015191506105af60808701610535565b90509295509295909350565b6001600160a01b0391909116815260200190565b901515815260200190565b90815260200190565b6020808252601d908201527f5061796d656e7420686173206e6f74206265656e206d61646520796574000000604082015260600190565b60208082526032908201527f5061796d656e7420616d6f756e742073686f756c6420626520657175616c20746040820152711bc81d1a19481d1bdd185b08185b5bdd5b9d60721b606082015260800190565b6020808252600d908201526c496e76616c696420707269636560981b604082015260600190565b6020808252601d908201527f496e73756666696369656e7420636f6e74726163742062616c616e6365000000604082015260600190565b6000826106e557634e487b7160e01b81526012600452602481fd5b500490565b600081600019048311821515161561071057634e487b7160e01b81526011600452602481fd5b50029056fea2646970667358221220a0cda2c2dff3fee959325f3162679baf8aa4fc23417b1ce9dafdcb9f3bce5a7d64736f6c63430008000033",
  "linkReferences": {},
  "deployedLinkReferences": {}
}